:020000040800F2
:10000000005000207D1C0008051700080717000895
:10001000091700080B1700080D1700080000000062
:100020000000000000000000000000000F170008A2
:10003000111700080000000013170008151700082A
:10004000C51C0008C51C0008C51C0008C51C00080C
:10005000C51C0008C51C0008C51C0008C51C0008FC
:10006000C51C0008C51C0008C51C0008C51C0008EC
:10007000C51C0008C51C0008C51C0008C51C0008DC
:10008000C51C0008C51C0008C51C0008C51C0008CC
:10009000C51C0008C51C0008C51C00081D17000869
:1000A00031170008411700085117000861170008B0
:1000B000C51C0008C51C000871170008811700083E
:1000C000C51C0008C51C0008C51C0008C51C00088C
:1000D000C51C0008C51C000891170008C51C0008B5
:1000E000C51C0008C51C0008C51C00080000000055
:1000F0000000000000000000000000000000000000
:0C01000000000000000000005FF808F1A3
:1001100081F0004102E000BF83F0004330B54FEAB8
:1001200041044FEA430594EA050F08BF90EA020F25
:100130001FBF54EA000C55EA020C7FEA645C7FEAB8
:10014000655C00F0E2804FEA5454D4EB5555B8BFDB
:100150006D420CDD2C4480EA020281EA030382EA4C
:10016000000083EA010180EA020281EA0303362DDE
:1001700088BF30BD11F0004F4FEA01314FF4801CB1
:100180004CEA113102D0404261EB410113F0004FC3
:100190004FEA03334CEA133302D0524263EB43037A
:1001A00094EA050F00F0A780A4F10104D5F1200E18
:1001B0000DDB02FA0EFC22FA05F2801841F1000173
:1001C00003FA0EF2801843FA05F359410EE0A5F147
:1001D00020050EF1200E012A03FA0EFC28BF4CF078
:1001E000020C43FA05F3C01851EBE37101F000452E
:1001F00007D54FF0000EDCF1000C7EEB00006EEB3B
:100200000101B1F5801F1BD3B1F5001F0CD34908C4
:100210005FEA30004FEA3C0C04F101044FEA44521B
:1002200012F5800F80F09A80BCF1004F08BF5FEAA2
:10023000500C50F1000041EB045141EA050130BD82
:100240005FEA4C0C404141EB0101013C28BFB1F594
:10025000801FE9D291F0000F04BF01460020B1FADF
:1002600081F308BF2033A3F10B03B3F120020CDAB2
:100270000C3208DD02F1140CC2F10C0201FA0CF090
:1002800021FA02F10CE002F11402D8BFC2F1200CF5
:1002900001FA02F120FA0CFCDCBF41EA0C019040AB
:1002A000E41AA2BF01EB0451294330BD6FEA0404F4
:1002B0001F3C1CDA0C340EDC04F11404C4F12002DF
:1002C00020FA04F001FA02F340EA030021FA04F3F1
:1002D00045EA030130BDC4F10C04C4F1200220FA48
:1002E00002F001FA04F340EA0300294630BD21FA86
:1002F00004F0294630BD94F0000F83F4801306BF4C
:1003000081F480110134013D4EE77FEA645C18BF3F
:100310007FEA655C29D094EA050F08BF90EA020FD6
:1003200005D054EA000C04BF1946104630BD91EACE
:10033000030F1EBF0021002030BD5FEA545C05D1D1
:100340004000494128BF41F0004130BD14F5800410
:100350003CBF01F5801130BD01F0004545F0FE4184
:1003600041F470014FF0000030BD7FEA645C1ABFB9
:10037000194610467FEA655C1CBF0B46024650EAF0
:10038000013406BF52EA033591EA030F41F400211C
:1003900030BD00BF90F0000F04BF0021704730B5A2
:1003A0004FF4806404F132044FF000054FF0000177
:1003B00050E700BF90F0000F04BF0021704730B538
:1003C0004FF4806404F1320410F0004548BF40420D
:1003D0004FF000013EE700BF42004FEAE2014FEA62
:1003E00031014FEA02701FBF12F07F4393F07F4F3D
:1003F00081F06051704732F07F4208BF704793F040
:100400007F4F04BF41F40021704730B54FF4607452
:1004100001F0004521F000411CE700BF50EA010255
:1004200008BF704730B54FF000050AE050EA0102FE
:1004300008BF704730B511F0004502D5404261EB6E
:1004400041014FF4806404F132045FEA915C3FF4AF
:10045000D8AE4FF003025FEADC0C18BF03325FEA4C
:10046000DC0C18BF033202EBDC02C2F1200300FAFD
:1004700003FC20FA02F001FA03FE40EA0E0021FA22
:1004800002F11444BDE600BF4FF0FF3C06E000BFA0
:100490004FF0010C02E000BF4FF0010C4DF804CD0D
:1004A0004FEA410C7FEA6C5C4FEA430C18BF7FEACD
:1004B0006C5C1BD001B050EA410C0CBF52EA430CFB
:1004C00091EA030F02BF90EA020F0020704710F17B
:1004D000000F91EA030F58BF994208BF90422CBF0A
:1004E000D8176FEAE37040F0010070474FEA410C03
:1004F0007FEA6C5C02D150EA013C07D14FEA430C21
:100500007FEA6C5CD6D152EA033CD3D05DF8040B91
:10051000704700BF8446104662468C4619466346C3
:1005200000E000BF01B5FFF7B7FF002848BF10F19A
:10053000000F01BD4DF808EDFFF7F4FF0CBF0120DF
:1005400000205DF808FB00BF4DF808EDFFF7EAFF5B
:1005500034BF012000205DF808FB00BF4DF808ED16
:10056000FFF7E0FF94BF012000205DF808FB00BF0B
:100570004DF808EDFFF7CEFF94BF012000205DF895
:1005800008FB00BF4DF808EDFFF7C4FF34BF0120A2
:1005900000205DF808FB00BF4FEA410212F500128F
:1005A00015D211D56FF47873B3EB625212D94FEABA
:1005B000C12343F0004343EA505311F0004F23FAA4
:1005C00002F018BF404270474FF00000704750EAF9
:1005D000013005D111F0004008BF6FF000407047B6
:1005E0004FF00000704700BF4A0011D212F5001210
:1005F00011D20DD56FF47873B3EB62520ED44FEA7B
:10060000C12343F0004343EA505323FA02F07047FA
:100610004FF00000704750EA013002D14FF0FF3038
:1006200070474FF0000070474FEA4102B2F1E043DB
:1006300024BFB3F5001CDCF1FE5C0DD901F0004CC9
:100640004FEAC0024CEA5070B2F1004F40EB830019
:1006500008BF20F00100704711F0804F21D113F145
:100660003872BCBF01F00040704741F480114FEA7E
:100670005252C2F11802C2F1200C10FA0CF320FA07
:1006800002F018BF40F001004FEAC1234FEAD32324
:1006900003FA0CFC40EA0C0023FA02F34FEA43038E
:1006A000CCE77FEA625307D150EA01331EBF4FF017
:1006B000FE4040F44000704701F0004040F0FE4032
:1006C00040F40000704700BF80F0004002E000BF2F
:1006D00081F0004142001FBF5FEA410392EA030F2D
:1006E0007FEA226C7FEA236C6AD04FEA1262D2EB77
:1006F0001363C1BFD218414048404140B8BF5B427C
:10070000192B88BF704710F0004F40F4000020F014
:100710007F4018BF404211F0004F41F4000121F02A
:100720007F4118BF494292EA030F3FD0A2F1010274
:1007300041FA03FC10EB0C00C3F1200301FA03F1B2
:1007400000F0004302D5494260EB4000B0F5000FD5
:1007500013D3B0F1807F06D340084FEA310102F194
:100760000102FE2A51D2B1F1004F40EBC25008BF46
:1007700020F0010040EA03007047490040EB000010
:10078000013A28BFB0F5000FEDD2B0FA80FCACF111
:10079000080CB2EB0C0200FA0CF0AABF00EBC2503E
:1007A00052421843BCBFD0401843704792F0000F2C
:1007B00081F4000106BF80F400000132013BB5E77F
:1007C0004FEA41037FEA226C18BF7FEA236C21D0F5
:1007D00092EA030F04D092F0000F08BF084670475A
:1007E00090EA010F1CBF0020704712F07F4F04D128
:1007F000400028BF40F00040704712F100723CBF3B
:1008000000F50000704700F0004343F0FE4040F464
:10081000000070477FEA226216BF08467FEA236322
:100820000146420206BF5FEA412390EA010F40F40D
:10083000800070474FF0000304E000BF10F0004359
:1008400048BF40425FEA000C08BF704743F0964340
:1008500001464FF000001CE050EA010208BF70475B
:100860004FF000030AE000BF50EA010208BF7047E2
:1008700011F0004302D5404261EB41015FEA010CF7
:1008800002BF84460146002043F0B64308BFA3F1EF
:100890008053A3F50003BCFA8CF2083AA3EBC253D1
:1008A00010DB01FA02FC634400FA02FCC2F12002F0
:1008B000BCF1004F20FA02F243EB020008BF20F027
:1008C0000100704702F1200201FA02FCC2F120028D
:1008D00050EA4C0021FA02F243EB020008BF20EA82
:1008E000DC7070474FF0FF0C1CEAD0521EBF1CEAB0
:1008F000D15392EA0C0F93EA0C0F6FD01A4480EA9E
:10090000010C400218BF5FEA41211ED04FF0006386
:1009100043EA501043EA5111A0FB01310CF00040B2
:10092000B1F5000F3EBF490041EAD3715B0040EAD8
:10093000010062F17F02FD2A1DD8B3F1004F40EBA8
:10094000C25008BF20F00100704790F0000F0CF07B
:10095000004C08BF49024CEA502040EA51207F3A3F
:10096000C2BFD2F1FF0340EAC250704740F400001A
:100970004FF00003013A5DDC12F1190FDCBF00F00B
:1009800000407047C2F10002410021FA02F1C2F1B9
:10099000200200FA02FC5FEA310040F1000053EA55
:1009A0004C0308BF20EADC70704792F0000F00F0A3
:1009B000004C02BF400010F4000F013AF9D040EAA9
:1009C0000C0093F0000F01F0004C02BF490011F43D
:1009D000000F013BF9D041EA0C018FE70CEAD1533B
:1009E00092EA0C0F18BF93EA0C0F0AD030F0004CBB
:1009F00018BF31F0004CD8D180EA010000F000406F
:100A0000704790F0000F17BF90F0004F084691F02C
:100A1000000F91F0004F14D092EA0C0F01D1420266
:100A20000FD193EA0C0F03D14B0218BF084608D12F
:100A300080EA010000F0004040F0FE4040F4000079
:100A4000704740F0FE4040F4400070474FF0FF0C0C
:100A50001CEAD0521EBF1CEAD15392EA0C0F93EA53
:100A60000C0F69D0A2EB030280EA010C49024FEAA5
:100A7000402037D04FF0805343EA111143EA10135E
:100A80000CF000408B4238BF5B0042F17D024FF416
:100A9000000C8B4224BF5B1A40EA0C00B3EB510FF1
:100AA00024BFA3EB510340EA5C00B3EB910F24BFDA
:100AB000A3EB910340EA9C00B3EBD10F24BFA3EB5F
:100AC000D10340EADC001B0118BF5FEA1C1CE0D127
:100AD000FD2A3FF650AF8B4240EBC25008BF20F0DA
:100AE000010070470CF0004C4CEA50207F32C2BF2E
:100AF000D2F1FF0340EAC250704740F400004FF0CB
:100B00000003013A37E792F0000F00F0004C02BFFB
:100B1000400010F4000F013AF9D040EA0C0093F0C5
:100B2000000F01F0004C02BF490011F4000F013B1F
:100B3000F9D041EA0C0195E70CEAD15392EA0C0F87
:100B400008D142027FF47DAF93EA0C0F7FF470AFBF
:100B5000084676E793EA0C0F04D14B023FF44CAF02
:100B600008466EE730F0004C18BF31F0004CCAD197
:100B700030F000427FF45CAF31F000437FF43CAFD3
:100B80005FE700BF4FF0FF3C06E000BF4FF0010CF5
:100B900002E000BF4FF0010C4DF804CD4FEA4002D7
:100BA0004FEA41037FEA226C18BF7FEA236C11D021
:100BB00001B052EA530C18BF90EA010F58BFB2EBD4
:100BC000030088BFC81738BF6FEAE17018BF40F054
:100BD000010070477FEA226C02D15FEA402C05D108
:100BE0007FEA236CE4D15FEA412CE1D05DF8040B8D
:100BF000704700BF844608466146FFE70FB5FFF720
:100C0000C9FF002848BF10F1000F0FBD4DF808EDD7
:100C1000FFF7F4FF0CBF012000205DF808FB00BFC8
:100C20004DF808EDFFF7EAFF34BF012000205DF822
:100C300008FB00BF4DF808EDFFF7E0FF94BF01206F
:100C400000205DF808FB00BF4DF808EDFFF7D2FF6C
:100C500094BF012000205DF808FB00BF4DF808EDAF
:100C6000FFF7C8FF34BF012000205DF808FB00BF7C
:100C70004FEA4002B2F1FE4F0FD34FF09E03B3EBA9
:100C800012620DD94FEA002343F0004310F0004FE9
:100C900023FA02F018BF404270474FF0000070473F
:100CA00012F1610F01D1420205D110F0004008BFDE
:100CB0006FF0004070474FF00000704742000ED2C6
:100CC000B2F1FE4F0BD34FF09E03B3EB126209D487
:100CD0004FEA002343F0004323FA02F070474FF03D
:100CE0000000704712F1610F01D1420202D14FF0B2
:100CF000FF3070474FF00000704700BF7BB972B9FA
:100D00000029BEBF00204FF0004106E008BF0028C8
:100D10001CBF6FF000414FF0FF3000F03FB8ADF165
:100D2000080C6DE904CE002909DB002B1ADB09F061
:100D300029F8DDF804E0DDE9022304B07047404201
:100D400061EB4101002B1BDB09F01CF8DDF804E02E
:100D5000DDE9022304B0404261EB4101524263EB02
:100D600043037047524263EB430309F00BF8DDF88D
:100D700004E0DDE9022304B0404261EB4101704729
:100D8000524263EB430308F0FDFFDDF804E0DDE9C8
:100D9000022304B0524263EB43037047704700BF25
:100DA00070B54FF0FF0C4CF4E06C1CEA11541DBF01
:100DB0001CEA135594EA0C0F95EA0C0F00F0DEF8CC
:100DC0002C4481EA030621EA4C5123EA4C5350EAB1
:100DD000013518BF52EA033541F4801143F4801302
:100DE00038D0A0FB02CE4FF00005E1FB02E506F093
:100DF0000042E0FB03E54FF00006E1FB03569CF0E8
:100E0000000F18BF4EF0010EA4F1FF04B6F5007FED
:100E100064F5407404D25FEA4E0E6D4146EB06065F
:100E200042EAC62141EA55514FEAC52040EA5E50E8
:100E30004FEACE2EB4F1FD0C88BFBCF5E06F1ED892
:100E4000BEF1004F08BF5FEA500E50F1000041EBC9
:100E5000045170BD06F0004646EA010140EA020076
:100E600081EA0301B4EB5C04C2BFD4EB0C0541EA98
:100E7000045170BD41F480114FF0000E013C00F3AD
:100E8000AB8014F1360FDEBF002001F0004170BDD1
:100E9000C4F10004203C35DA0C341BDC04F11404EA
:100EA000C4F1200500FA05F320FA04F001FA05F276
:100EB00040EA020001F0004221F0004110EBD37043
:100EC00021FA04F642EB06015EEA430E08BF20EA6F
:100ED000D37070BDC4F10C04C4F1200500FA04F312
:100EE00020FA05F001FA04F240EA020001F00041A4
:100EF00010EBD37041F100015EEA430E08BF20EA17
:100F0000D37070BDC4F1200500FA05F24EEA020E5E
:100F100020FA04F301FA05F243EA020321FA04F08D
:100F200001F0004121FA04F220EA020000EBD37044
:100F30005EEA430E08BF20EAD37070BD94F0000F44
:100F40000FD101F00046400041EB010111F4801F78
:100F500008BF013CF7D041EA060195F0000F18BF29
:100F6000704703F00046520043EB030313F4801F65
:100F700008BF013DF7D043EA0603704794EA0C0F1F
:100F80000CEA135518BF95EA0C0F0CD050EA410635
:100F900018BF52EA4306D1D181EA030101F00041B2
:100FA0004FF0000070BD50EA410606BF10461946DA
:100FB00052EA430619D094EA0C0F02D150EA0136E6
:100FC00013D195EA0C0F05D152EA03361CBF104627
:100FD00019460AD181EA030101F0004141F0FE41C6
:100FE00041F470014FF0000070BD41F0FE4141F44A
:100FF000780170BD70B54FF0FF0C4CF4E06C1CEA4A
:1010000011541DBF1CEA135594EA0C0F95EA0C0FFE
:1010100000F0A7F8A4EB050481EA030E52EA0335B9
:101020004FEA013100F088804FEA03334FF08055DA
:1010300045EA131343EA12634FEA022245EA111507
:1010400045EA10654FEA00260EF000419D4208BFB8
:10105000964244F1FD0404F5407402D25B084FEA65
:101060003202B61A65EB03055B084FEA32024FF411
:1010700080104FF4002CB6EB020E75EB030E22BF6E
:10108000B61A754640EA0C005B084FEA3202B6EB2E
:10109000020E75EB030E22BFB61A754640EA5C00DD
:1010A0005B084FEA3202B6EB020E75EB030E22BF6D
:1010B000B61A754640EA9C005B084FEA3202B6EB6E
:1010C000020E75EB030E22BFB61A754640EADC002D
:1010D00055EA060E18D04FEA051545EA16754FEA8F
:1010E00006164FEAC30343EA52734FEAC2025FEAAD
:1010F0001C1CC0D111F4801F0BD141EA00014FF03C
:1011000000004FF0004CB6E711F4801F04BF01430C
:101110000020B4F1FD0C88BFBCF5E06F3FF6AFAE28
:10112000B5EB030C04BFB6EB020C5FEA500C50F1B8
:10113000000041EB045170BD0EF0004E4EEA11313B
:1011400014EB5C04C2BFD4EB0C0541EA045170BD42
:1011500041F480114FF0000E013C90E645EA060E86
:101160008DE60CEA135594EA0C0F08BF95EA0C0FB4
:101170003FF43BAF94EA0C0F0AD150EA01347FF4FC
:1011800034AF95EA0C0F7FF425AF104619462CE7D3
:1011900095EA0C0F06D152EA03353FF4FDAE104636
:1011A000194622E750EA410618BF52EA43067FF487
:1011B000C5AE50EA41047FF40DAF52EA43057FF417
:1011C000EBAE12E74FEA410C7FEA6C5C02D150EAC9
:1011D000013C0AD14FEA430C7FEA6C5C02D152EA2F
:1011E000033C02D14FF0000070474FF00100704700
:1011F0000348044B834202D0034B03B118477047A6
:10120000D0000020D0000020000000000548064B60
:101210001B1AD90F01EBA301491002D0034B03B1F4
:1012200018477047D0000020D000002000000000C8
:1012300010B5064C237843B9FFF7DAFF044B13B11E
:101240000448AFF300800123237010BDD0000020BC
:10125000000000000CAC000808B5054B1BB10549A7
:101260000548AFF30080BDE80840FFF7CFBF00BFDF
:1012700000000000D40000200CAC000800000000BA
:1012800010B5114C204600F013FF4FF0FF312046FF
:1012900000F064FD204600F023FEFFF7CBFA0B4977
:1012A000FFF7D4FBFFF798F805A3D3E90023FFF776
:1012B00077FD0022064BFFF773FDFFF7B5F910BD70
:1012C0006666666666660A40EC00002000F07F45B0
:1012D0000000264010B586B01F4B9A6942F0080204
:1012E0009A619A6902F008020192019A9A6942F49D
:1012F00000729A619B6903F400730293029B0023BE
:101300000393049305931548154A026083600373A1
:1013100003754FF46022C26143600123036100F052
:1013200067FF98B9082303930123049300230593CF
:1013300003A90A4800F0D8FD58B9084C204600F02F
:10134000B7FE204600F0D8FF06B010BD00F05AF9F5
:10135000E8E700F057F9F0E700100240EC00002049
:101360000024014000B587B0002302930393049347
:1013700005930268114B9A4202D007B05DF804FB56
:1013800003F56C439A6942F400729A619A6902F417
:1013900000720092009A9A6942F008029A619B6971
:1013A00003F008030193019B01230293032303939A
:1013B00002A9034801F01CF9DFE700BF0024014047
:1013C000000C01402DE9F04188B0002404940594FC
:1013D000069407943A4B9A6942F010029A619A690E
:1013E00002F010020092009A9A6942F020029A617B
:1013F0009A6902F020020192019A9A6942F004026D
:101400009A619A6902F004020292029A9A6942F081
:1014100008029A619B6903F008030393039B294F19
:1014200022464FF48041384601F0F7F9264D224616
:101430004FF47141284601F0F0F94FF480430493D2
:101440000126059606944FF00208CDF81C8004A9E9
:10145000384601F0CDF84FF4004304930594069606
:1014600004A9384601F0C4F84FF47043049305967C
:101470000694CDF81C8004A9284601F0B9F84FF471
:1014800008730493114B0593069404A9284601F0B0
:10149000AFF84FF4807304930596069403230793E3
:1014A00004A9284601F0A4F822462146172000F09E
:1014B000E9FF172000F0F6FF08B0BDE8F08100BF9B
:1014C0000010024000100140000C0140000011100B
:1014D00008B50B480B4B03600B4B43600023836044
:1014E000C3604FF48042026143618361C361036260
:1014F00001F064FE00B908BD00F084F8FBE700BF0E
:101500007001002000540040801A060008B50B4806
:101510000B4B03600B4B436000238360C3604FF4AD
:101520008042026143618361C361036201F046FE50
:1015300000B908BD00F066F8FBE700BF1C01002001
:1015400000580040801A060010B588B000230493AC
:101550000593069307930368264A934204D0264ACC
:10156000934227D008B010BD244CA36943F0080370
:10157000A361A36903F008030093009BC0230493B5
:10158000122305930323079304A91D4801F030F8A3
:10159000E36943F40013E361E36903F40013019387
:1015A000019B002211461F2000F06CFF1F2000F05D
:1015B00079FFD7E7114CA36943F00803A361A3693E
:1015C00003F008030293029B4FF440630493122339
:1015D00005930323079304A9094801F009F8E36977
:1015E00043F48003E361E36903F480030393039B03
:1015F000B8E700BF0054004000580040001002400F
:10160000000C014072B6FEE700B595B0282200211B
:101610000DEB020008F026FD0023059306930793C7
:1016200008930993019302930393049301220A926E
:101630004FF480330B930E920222119212934FF4C7
:10164000E01313930AA802F04DFFC8B90F230593C6
:1016500002210691002307934FF4806208920993B8
:1016600005A803F071F968B9022301934FF4004310
:10167000039301A803F044FA30B915B05DF804FBF8
:10168000FFF7C0FFFFF7BEFFFFF7BCFF08B500F094
:1016900041FBFFF7B9FFFFF795FEFFF719FFFFF7D3
:1016A00019FE00F07FF800F00FFA00F007F900F0E3
:1016B000C5F8FFF72BFF00F083FA05F06BF8000088
:1016C00082B00E4B9A6942F001029A619A6902F067
:1016D00001020092009ADA6942F08052DA61DB6915
:1016E00003F080530193019B054A536823F0E063A4
:1016F00043F00073536002B0704700BF0010024017
:1017000000000140FEE7FEE7FEE7FEE7FEE7704768
:101710007047704708B500F00FFB08BD08B52020E2
:1017200001F08AF84FF4007001F086F808BD00005F
:1017300008B5024803F002FC08BD00BF9C0200206F
:1017400008B5024803F0FAFB08BD00BF9C02002068
:1017500008B5024803F0F2FB08BD00BF9C02002060
:1017600008B5024803F0EAFB08BD00BF9C02002058
:1017700008B5024803F0E2FB08BD00BFC401002029
:1017800008B5024802F0C8FD08BD00BF7001002086
:1017900008B5024804F048F908BD00BFE402002083
:1017A0007047000000B58DB0224BDA6942F00102AB
:1017B000DA61DB6903F001030093009B242200211E
:1017C00003A808F04FFC0023019302931A484FF03E
:1017D00080420260436083604FF6FF72C260036123
:1017E00083610123039305930A22079209930B92C5
:1017F00003A903F0EDFCB0B900230193029301A902
:101800000D4803F04BFF88B90B4803686FF00102E5
:101810001A61DA6842F00102DA603C2103F0D8FE76
:101820000DB05DF804FBFFF7EDFEE5E7FFF7EAFE1C
:10183000EAE700BF001002405402002000B58DB05E
:101840002422002103A808F00DFC00230193029339
:101850001848194A0260436083604FF6FF72C26005
:10186000036183610123039305930A22079209937D
:101870000B9203A903F0ACFCB0B9002301930293CF
:1018800001A90C4803F00AFF88B90A4803686FF001
:1018900001021A61DA6842F00102DA603C2103F0C9
:1018A00097FE0DB05DF804FBFFF7ACFEE5E7FFF730
:1018B000A9FEEAE70C0200200004004000B587B052
:1018C0000023029303930493059300930193154817
:1018D000154A02604722426083604FF6FF72C26081
:1018E0000361836103F01CFC90B94FF480530293B1
:1018F00002A90C4803F070FD68B90023009301931E
:101900006946084803F0CAFE40B907B05DF804FB19
:10191000FFF778FEE9E7FFF775FEEEE7FFF772FEE7
:10192000F3E700BFC40100200008004000B583B009
:101930000368234A934205D0224A93422DD003B034
:101940005DF804FB204B9A6942F400629A619B693E
:1019500003F400630093009B00221146182000F05E
:1019600091FD182000F09EFD00221146192000F084
:1019700089FD192000F096FD002211461A2000F082
:1019800081FD1A2000F08EFD002211461B2000F080
:1019900079FD1B2000F086FDD1E70B4BDA6942F0A0
:1019A0000402DA61DB6903F004030193019B002266
:1019B00011461E2000F066FD1E2000F073FDBEE7FC
:1019C000002C0140000800400010024000B589B022
:1019D000002304930593069307930368B3F1804FA4
:1019E00005D01D4A93421DD009B05DF804FB03F5F4
:1019F0000433DA6942F00102DA61DA6902F00102C5
:101A00000092009A9A6942F004029A619B6903F07D
:101A100004030193019B0323049304A90F4800F0DE
:101A2000E7FDE1E70E4BDA6942F00202DA61DA69BA
:101A300002F002020292029A9A6942F004029A614A
:101A40009B6903F004030393039BC023049304A93D
:101A5000024800F0CDFDC7E7000400400008014047
:101A60000010024000B587B0002302930393049353
:101A700005930268124B9A4202D007B05DF804FB4E
:101A800003F564439A6942F400629A619A6902F428
:101A900000620092009A9A6942F004029A619B697E
:101AA00003F004030193019B4FF41063029302239C
:101AB0000393059302A9034800F09AFDDDE700BFF8
:101AC000002C01400008014010B596B0002412948B
:101AD0001394149415941094119409940A940B94EB
:101AE0000C940D940E940F942022214601A808F026
:101AF000B9FA3148314B03604460846041F61F43BA
:101B0000C36004614461846103F00AFB00283ED194
:101B10004FF48053129312A9274803F05DFC00286C
:101B200038D1254803F028FB002836D10023109334
:101B3000119310A9204803F0B1FD002830D1602393
:101B4000099300220A920B920C920D920E920F9220
:101B500009A9194803F0C6FB28BB0C2209A916489D
:101B600003F0C0FB10BB0023019302930393049383
:101B700005934FF400520692089301A90E4803F012
:101B8000C3FDB0B90C48FFF76DFF16B010BDFFF7ED
:101B900039FDBDE7FFF736FDC3E7FFF733FDC5E7C6
:101BA000FFF730FDCBE7FFF72DFDD6E7FFF72AFD66
:101BB000D9E7FFF727FDE5E79C020020002C014054
:101BC00008B50A480A4B03604FF4E1334360002331
:101BD0008360C36003610C2242618361C36103F0CF
:101BE00067FE00B908BDFFF70DFDFBE7E40200202A
:101BF0000044004030B587B0002302930393049360
:101C0000059302681B4B9A4201D007B030BD03F523
:101C1000E633DA6942F40032DA61DA6902F400325A
:101C20000092009A9A6942F004029A619B6903F05B
:101C300004030193019B04230293022303930323D0
:101C400005930D4D02A9284600F0D2FC082302930B
:101C50000024039404940DEB0301284600F0C8FC13
:101C600022462146262000F00DFC262000F01AFC1A
:101C7000CBE700BF0044004000080140FFF790FDA3
:101C80000B480C490C4A002302E0D458C4500433DA
:101C9000C4188C42F9D3094A094C002301E01360AF
:101CA0000432A242FBD308F0EBF9FFF7EFFC7047D8
:101CB00000000020D000002088D90008D0000020BB
:101CC00064090020FEE7000010B504460E4B1A78A8
:101CD0004FF47A73B3FBF2F30C4A1068B0FBF3F0E5
:101CE00000F0EEFB68B90F2C01D901200AE00022B8
:101CF00021464FF0FF3000F0C5FB054B1C60002073
:101D000000E0012010BD00BF040000200000002002
:101D10000800002008B5074A136843F01003136059
:101D2000032000F09DFB0F20FFF7CEFFFFF7C8FC5C
:101D3000002008BD00200240034A1168034B1B78B5
:101D40000B441360704700BF2C03002004000020E8
:101D5000014B1868704700BF2C030020F0B583B01A
:101D600005460C4600230193FFF7F2FF2B689A68A3
:101D700012F4807F23D107465A6812F4807F03D182
:101D8000DB6A13F4700F29D0504B1E68022002F05A
:101D900043FFB6FBF0F62B6819694D4A114236D164
:101DA000D96802F15C42114231D11969494A1142A4
:101DB00040D1DA68484B1A423ED0292341E0AB6A51
:101DC00043F02003AB62002385F82430012003B0E8
:101DD000F0BD2B681B6813F0020F0FD02B681B6837
:101DE00013F0020F4FD1B4F1FF3FF7D0002CF0D029
:101DF000FFF7AEFFC31BA342F0D9EAE7AB6A43F09B
:101E00000403AB62002385F824300320DFE719695F
:101E1000304A114204D1D96802F16E4211420DD00C
:101E200019692E4A0A405AB9DA682C4B13405BB143
:101E3000FC2306E0292304E0142302E0542300E0FD
:101E4000FC2303FB06F607E05423FAE7019BB342A9
:101E500010D3019B01330193019BB34213D2B4F120
:101E6000FF3FF6D0002CF1D0FFF772FFC01BA0425D
:101E7000EFD9EBE7AB6A43F00403AB62002385F8CC
:101E800024300320A3E72B686FF012021A60AB6ABC
:101E900043F40073AB622B689B6803F46023B3F5D3
:101EA000602F01D0002092E7287B60B9AB6A23F451
:101EB0008073AB62AB6A13F4805F88D1AB6A43F086
:101EC0000103AB6283E7002081E700BF0000002030
:101ED00024499224922449129224490049922400D0
:101EE0000368D86C7047000030B482B000220192C1
:101EF00090F82420012A00F08F800346012280F808
:101F000024204A68062A2DD80468606B02EB8202FE
:101F1000053A4FF01F0C0CFA02FC20EA0C000D6889
:101F200005FA02F2024362630A68092A38D91C687A
:101F3000E06802EB42021E3A4FF0070C0CFA02FC7A
:101F400020EA0C008D6805FA02F20243E2600A689A
:101F5000103A012A34D90020002283F8242002B04C
:101F600030BC70470C2A0DD80568286B02EB820242
:101F7000233A1F24944020EA04000C689440204334
:101F80002863D1E70568E86A02EB8202413A1F2420
:101F9000944020EA04000C6894402043E862C3E7C0
:101FA0001C68206902EB42024FF0070C0CFA02FC9D
:101FB00020EA0C008D6805FA02F202432261C6E7AE
:101FC0001A681648824205D09A6A42F020029A6244
:101FD0000120C1E7906810F4000F1BD1906840F415
:101FE000000090600A68102A01D00020B4E70C4A73
:101FF00012680C49A1FB0212920C02EB8202520001
:10200000019202E0019A013A0192019A002AF9D163
:102010000020A1E700209FE70220A0E70024014064
:102020000000002083DE1B4330B583B00023019302
:1020300003689A6812F0010F33D104469A6842F09F
:1020400001029A60184B1B68184AA2FB03239B0CE1
:10205000019302E0019B013B0193019B002BF9D10D
:10206000FFF776FE054623689B6813F0010F16D133
:10207000FFF76EFE431B022BF5D923689B6813F014
:10208000010FF0D1A36A43F01003A362E36A43F0A7
:102090000103E362002384F82430012002E00020E1
:1020A00000E0002003B030BD0000002083DE1B43B1
:1020B00090F82430012B68D010B50446012380F835
:1020C0002430FFF7B1FF00285BD1A36A23F44073EB
:1020D00023F0010343F48073A36223682C4A9342E4
:1020E00027D0A26A22F48012A2625A6812F4806F8A
:1020F00005D0A26A22F4405242F48052A262A26A3F
:1021000012F4805F2BD0E26A22F00602E262002223
:1021100084F824206FF002021A6023689A6802F49F
:102120006022B2F5602F1DD09A6842F480129A6046
:102130002AE0A2F58062526812F4702FD1D0A26A10
:1021400042F48012A262134A526812F4806FD6D011
:10215000A26A22F4405242F48052A262CFE70022E7
:10216000E262D4E70A4A934204D09A6842F4A00299
:102170009A6009E0A2F58062526812F4702FD3D100
:10218000F3E7002384F8243010BD0220704700BF1D
:10219000002801400024014038B503689A6812F015
:1021A000010F01D1002038BD04469A6822F00102D7
:1021B0009A60FFF7CDFD054623689B6813F0010F79
:1021C00013D0FFF7C5FD431B022BF5D923689B688D
:1021D00013F0010FF0D0A36A43F01003A362E36A87
:1021E00043F00103E3620120DDE70020DBE70000AC
:1021F00000287BD070B50446836A002B4DD0204662
:10220000FFF7CAFFA36A13F0100369D1002867D152
:10221000A26A22F4885222F0020242F00202A26272
:102220006268E1690A43217B42EA4102A568B5F58B
:10223000807F02D0012D36D01D46267D012E35D05F
:102240002668716821F46941294371602568AE6888
:10225000274931401143A960A168B1F5807F01D0C1
:10226000012902D12369013B1B052568E96A21F494
:1022700070010B43EB62236899681E4B0B409A4236
:1022800025D0A36A23F0120343F01003A362E36A8C
:1022900043F00103E362012027E0C36280F82430A9
:1022A000FFF760F8ABE74FF48075C6E731B9A16975
:1022B000013945EA413141F40065C1E7A16A41F0C5
:1022C0002001A162E16A41F00101E162B8E7002367
:1022D000E362A36A23F0030343F00103A36204E073
:1022E000A36A43F01003A362012070BD0120704770
:1022F000FDF7E1FFFE0E1FFF70B582B000230193D2
:1023000090F82430012B72D00446012380F8243049
:10231000FFF742FF2046FFF787FE054628B100235E
:1023200084F82430284602B070BDA36A23F4885391
:1023300023F0020343F00203A3622E4B1E68022027
:1023400002F06AFCB6FBF0F67600019602E0019B13
:10235000013B0193019B002BF9D12268936843F064
:1023600008039360FFF7F4FC064623689A6812F0AE
:10237000080F14D0FFF7ECFC801B0A28F5D923685E
:102380009B6813F0080FF0D0A36A23F0120343F008
:102390001003A362002384F824300125C2E79A6861
:1023A00042F004029A60FFF7D3FC064623689B685C
:1023B00013F0040F14D0FFF7CBFC801B0A28F5D9CB
:1023C00023689B6813F0040FF0D0A36A23F0120374
:1023D00043F01003A362002384F824300125A1E711
:1023E000A36A23F0030343F00103A36297E70225E6
:1023F00098E700BF00000020002808DB0901C9B2EF
:1024000000F1604000F5614080F80013704700F073
:102410000F000901C9B2014B1954704714ED00E0D7
:1024200000B500F00700C0F1070CBCF1040F28BF95
:102430004FF0040C031D062B0FD9C31E4FF0FF3EB7
:102440000EFA0CF021EA000199400EFA03FE22EA8E
:102450000E0241EA02005DF804FB0023EEE70000F3
:10246000074AD36823F4E0631B041B0C000200F44A
:10247000E060034343F0BF6343F40033D36070472D
:1024800000ED00E010B50446054BD868C0F302200B
:10249000FFF7C6FF01462046FFF7AEFF10BD00BFA5
:1024A00000ED00E0002807DB00F01F0240090123D7
:1024B0009340024A42F82030704700BF00E100E03C
:1024C0000138B0F1807F0BD24FF0E0235861054A0C
:1024D000F02182F823100020986107221A617047CA
:1024E0000120704700ED00E0042806D04FF0E02204
:1024F000136923F00403136170474FF0E02213695E
:1025000043F0040313617047034690F82120D2B2D0
:10251000022A06D004228263002280F820200120B3
:10252000704701680A6822F00E020A6001680A68B2
:1025300022F001020A60026CC06B012101FA02F272
:10254000426083F82110002083F8200070470000CB
:1025500008B590F82130DBB2022B03D0042383634B
:10256000012008BD0268136823F00E03136002689F
:10257000136823F0010313600368194A934214D0CF
:10258000143293421FD0143293421ED0143293421D
:102590001ED0143293421ED01432934202D04FF018
:1025A000807203E04FF4801200E001220D4B5A606C
:1025B000012380F82130002380F82030436B6BB179
:1025C00098470020CDE71022F0E74FF48072EDE746
:1025D0004FF48052EAE74FF48032E7E70020C0E78B
:1025E000080002400000024090F8210070470000FF
:1025F00070B582B00024A446A2E07E4DAB4210D05C
:1026000007D97D4DAB420CD005F58035AB4208D0E3
:1026100013E0A5F58015AB4203D005F57025AB425C
:1026200007D18B68002B55D0012B4ED04261082476
:1026300003E0A5F58015AB42F3D0BEF1FF0F4BD8F8
:1026400006464FEA8C0233680F25954023EA0503BE
:1026500004FA02F2134333604B6813F0805F6DD0CD
:10266000664B9A6942F001029A619B6903F001038B
:102670000193019B4FEA9C02951C614B53F8256026
:102680000CF00305AD000F23AB4026EA03065D4BBB
:10269000984228D003F58063984200F08D8003F5BE
:1026A0008063984200F08A8003F58063984218D0D6
:1026B000042319E0CC68C0E7CC680434BDE7CC68DB
:1026C0000834BAE7CC680C34B7E702610824B4E7F1
:1026D0000024B2E70424B0E7061DACF10802920022
:1026E000B1E7032300E00023AB4033430232444D03
:1026F00045F822304B6813F4801F61D0424A93683A
:1027000043EA0E0393604B6813F4001F5ED03E4A09
:10271000D36843EA0E03D3604B6813F4003F5BD0E9
:10272000394A536843EA0E0353604B6813F4803F01
:1027300058D0354A136843EA0E0313600CF1010CBC
:102740000B6833FA0CF253D0012202FA0CF203EABE
:10275000020E32EA0303F1D14B68122B3FF64DAF64
:10276000122B3FF66AAF01A555F823F02326000887
:10277000B5260008BF260008D12600083B26000821
:102780003B2600083B2600083B2600083B260008A5
:102790003B2600083B2600083B2600083B26000895
:1027A0003B2600083B2600083B2600083B26000885
:1027B000B9260008C5260008012395E7022393E700
:1027C000114A936823EA0E0393609CE70E4AD3688C
:1027D00023EA0E03D3609FE70B4A536823EA0E03F4
:1027E0005360A2E7084A136823EA0E031360A5E7C3
:1027F00002B070BD00002210000031100010024035
:1028000000000140000801400004014083681942B3
:1028100001D001207047002070470AB10161704764
:10282000090401617047C36801EA030221EA030158
:1028300041EA02410161704708B5054B5B690342FB
:1028400000D108BD024B586103F078FFF9E700BFE3
:102850000004014003685A6912F0800F01D0002281
:102860001A61704790F83E30DBB2402B10D00369FC
:10287000B3F5804F1BD0036D002B39D1436CC3F3EC
:10288000C813026803F0060343F0F00313617047B6
:10289000036D2BB9436C026803F0FE0313617047AC
:1028A000436C026843F00103DBB21361704790F898
:1028B0003D30DBB2212B0FD0436C026843F00103A3
:1028C000DBB21361436B6BB19B6A5BB10268536807
:1028D00043F4006353607047436C026803F0FE03E7
:1028E0001361EFE7836B33B19B6A002BEED102E0FB
:1028F000036D012B00D07047436CC3F3C81302680B
:1029000003F0060343F0F1031361F4E7436C02683C
:10291000DBB21361436B3BB19B6A2BB10268536816
:1029200043F4006353607047836B002BFBD09B6ABA
:10293000002BF3D1F7E7000010B48DB090F83E30D3
:10294000DAB2C16A046B90F83D30DBB2222B0AD0B8
:1029500000230B9303685A690B929B690B930B9BA3
:102960000DB010BC7047036D0BB9402A17D0036D32
:102970001BB90369B3F5404F19D0438D9BB2002BAF
:1029800025D1039303685A6903929A690392039AC3
:102990001A6842F400721A6000230365E0E70193AD
:1029A00003685A6901929B690193019BD8E7002350
:1029B000029303685A6902929A690292029A1A680B
:1029C00042F480721A60036D01330365C8E7438DDA
:1029D0009BB2012B1CD0438D9BB2022B72D002689C
:1029E000136843F48063136003685A6812F4006F3D
:1029F00000F0B480202900F2BA80082980F0A78076
:102A0000012940F0AB805A6842F480525A60A5E038
:102A100011F5803F11D0082934D0202932D0122C52
:102A20002ED0042940D002293ED010293CD0026883
:102A3000136823F4806313603BE00268136823F497
:102A40008063136003685A6812F4006F0CD01A6830
:102A500022F480621A600023049303685A69049286
:102A60009B690493049B97E7002205925A6905929B
:102A70009A690592059A1A6842F400721A608BE707
:102A80000129D0D00268136823F480631360002307
:102A9000079303685A6907929A690792079A1A6816
:102AA00042F400721A6077E70268136843F48063A7
:102AB00013600023069303685A6906929B69069384
:102AC000069B69E7102904D82B4BCB4013F0010F6C
:102AD00022D10268136843F4006313600023089353
:102AE00003685A6908929A690892089A1A6822F447
:102AF00080621A6003685A6812F4006F3FF44CAFAA
:102B000020291FD8082915D201297FF445AF5A681A
:102B100042F480525A603FE70268136843F48063CE
:102B200013600023099303685A6909929B6909930A
:102B3000099BDFE70839114ACA4012F0010F3FF440
:102B40002BAFE4E711F5803F7FF426AFDFE70839CC
:102B50000A4ACA4012F0010F7FF455AF00230A93CE
:102B600003685A690A929B690A930A9B14E711F554
:102B7000803FF3D147E700BF1400010001010001CD
:102B8000438D9BB25BB1426A036812781A61436A53
:102B900001334362438D9BB2013B9BB24385704737
:102BA000438D9BB25BB103681A69436A1A70436A2A
:102BB00001334362438D9BB2013B9BB24385704717
:102BC00082B0002301930E4B1B68DB080D4AA2FB69
:102BD00003231B0A03EB83030193019B013B019336
:102BE000019B33B103681B6813F4007FF5D100200B
:102BF00004E0036C43F020030364012002B070473B
:102C00000000002089B5F81403685A6912F4806F37
:102C100001D1002070476FF480625A610023036382
:102C2000202280F83D2080F83E30026C42F0040201
:102C3000026480F83C3001207047C36AB3F52A0F64
:102C400004D0C36AB3F12A4F03D070470123C36293
:102C500070470823C362F8E72DE9F04106460C46A9
:102C6000174698463BE0FFF773F8069BC01A4045AD
:102C700002D8B8F1000F32D1012D18D033689B690A
:102C800024EA03039BB2B3FA83F35B099F4226D184
:102C900000233363202286F83D2086F83E30326CD4
:102CA00042F02002326486F83C30012027E033688D
:102CB0005B6924EA03039BB2B3FA83F35B09E5E79C
:102CC00033685B6924EA030C1FFA8CFCBCFA8CFCA9
:102CD0004FEA5C1C674511D1B8F1FF3FC3D1C4F383
:102CE0000745012DECD033689B6924EA030C1FFAD9
:102CF0008CFCBCFA8CFC4FEA5C1CEBE70020BDE8C6
:102D0000F0812DE9F84305460E469046994653E07A
:102D10001A6842F400721A602B686FF480625A617C
:102D200000232B63202285F83D2085F83E302A6C55
:102D300042F004022A6485F83C3001204AE0FFF7A3
:102D400007F8A0EB0900404502D8B8F1000F33D1D5
:102D5000012F17D02B689B6926EA03039BB2003B27
:102D600018BF012343B300232B63202285F83D20A5
:102D700085F83E302A6C42F020022A6485F83C3007
:102D8000012027E02B685B6926EA03039BB2003B26
:102D900018BF0123E6E72B689C6926EA0404A4B265
:102DA000003C18BF0124A4B12B685A6912F4806F4B
:102DB000AED1B8F1FF3FC2D1C6F30747012FEAD128
:102DC0002B685C6926EA0404A4B2003C18BF012405
:102DD000E9E70020BDE8F883F0B583B004460D466E
:102DE00016461F46C36A082B0DD0012B0BD013F5D6
:102DF000803F08D0036B122B0AD10268136843F49A
:102E00008073136004E02268136843F480731360D6
:102E10000097334600224FF001112046FFF71CFFB8
:102E200080B92369B3F5804F16D1236805F0FE05FC
:102E30001D613B46324613492046FFF762FFF8B951
:102E400003B0F0BD23681B6813F4807F02D04FF4F9
:102E5000007323640320F3E7EB11226803F00603F9
:102E600043F0F00313613B46324607492046FFF723
:102E700048FF18B92368EDB21D61DAE70120DFE7EA
:102E80000120DDE702000100080001002DE9F0410A
:102E900084B004460D4616461F46C26A01680B6898
:102EA00043F480630B60082A0DD0012A0BD012F581
:102EB000803F08D0036B112B0AD10268136843F4DA
:102EC0008073136004E02268136843F48073136016
:102ED0000097334600224FF001112046FFF7BCFE59
:102EE00098B92369B3F5804F19D1236845F00105DE
:102EF000EDB21D613B4632462A492046FFF701FFED
:102F000000284CD104B0BDE8F08123681B6813F49D
:102F1000807F02D04FF4007323640320F2E74FEA6E
:102F2000E51808F00608236848F0F0021A613B46ED
:102F300032461D492046FFF7E4FE08B10120E1E7D3
:102F40002368EDB21D613B46324616492046FFF725
:102F5000D8FE08B10120D5E7002203922368596901
:102F60000391996903910399196841F4807119607B
:102F7000009733464FF001112046FFF76DFE20B950
:102F8000226848F0F1031361B4E723681B6813F467
:102F9000807F02D04FF4007323640320B2E7012046
:102FA000B0E700BF020001000800010070B5044650
:102FB0000D46164623685B6913F0800F21D1204629
:102FC000FFF722FEF8B9B5F1FF3FF3D0FEF7C0FEE0
:102FD000801BA84201D8002DECD123685B6913F057
:102FE000800FE7D100232363202284F83D2084F85A
:102FF0003E30226C42F02002226484F83C300120F2
:1030000000E0002070BD0120FCE700002DE9F04346
:1030100085B004460D4691461F46DDF830800D9E72
:103020000368196841F480711960009643460022D4
:103030004FF00111FFF710FE60B9236805F0FE059F
:103040001D613346424626492046FFF75AFE68B1C5
:10305000012008E023681B6813F4807F02D04FF43E
:1030600000732364032005B0BDE8F08300230393BD
:1030700023685A6903929B690393039B3246414636
:103080002046FFF793FF30B9012F0FD123685FFA75
:1030900089F61E61E7E7236C042B01D00120E2E7EB
:1030A0002268136843F400731360F7E723684FEA5C
:1030B00019221A61324641462046FFF777FF20B9B0
:1030C00023685FFA89F61E61CDE7236C042B01D0DB
:1030D0000120C8E72268136843F400731360F7E720
:1030E0000200010070B504460D46164623685B6970
:1030F00013F0040F21D12046FFF786FDF8B9B5F192
:10310000FF3FF3D0FEF724FE801BA84201D8002D1C
:10311000ECD123685B6913F0040FE7D1002323632C
:10312000202284F83D2084F83E30226C42F02002B8
:10313000226484F83C30012000E0002070BD0120B2
:10314000FCE770B504460D46164614E06FF0100219
:103150005A6100232363202284F83D2084F83E3006
:10316000226C226484F83C30012025E023685B69EE
:1031700013F0400F10D02368586910F0400F1AD197
:10318000586910F0100FE1D1FEF7E2FD801BA84254
:10319000ECD8002DEFD1E9E700232363202284F847
:1031A0003D2084F83E30226C42F02002226484F8F4
:1031B0003C30012000E0002070BD0000002800F03D
:1031C000CC8070B5044690F83D30002B77D0242396
:1031D00084F83D302268136823F0010313602268ED
:1031E000136843F4004313602268136823F4004318
:1031F000136001F065FC62685A4B9A4264D85A4BDE
:1032000098428CBF00230123002B40F0A88057492F
:10321000A1FB00318B0C25686A6822F03F0242EA6C
:1032200091426A6021680A6A22F03F0266684D4D49
:10323000AE424FD8013313430B622168CA6922F4AE
:103240004F4222F0FF026568464B9D424CD8431E18
:103250006D00B3FBF5F3013340F6FC70034278D008
:10326000C3F30B031A43CA6121680B6823F0C00340
:10327000E269206A024313430B6021688B6823F4E0
:10328000034323F0FF032269E068024313438B608A
:103290002168CB6823F0FF036269A06902431343EE
:1032A000CB602268136843F00103136000202064A0
:1032B000202384F83D30206384F83E0070BD80F800
:1032C0003C30FEF741F982E7294B98428CBF00233E
:1032D000012399E74FF4967505FB03F3254DA5FBF4
:1032E00003539B090133A6E7A668BEB9431E05EB4D
:1032F000450CB3FBFCF30133C3F30B03B3FA83F3C5
:103300005B0943BBC6B9431E05EB4505B3FBF5F3AB
:103310000133C3F30B0343F40043A3E7431E05EB60
:10332000850C0CEB8C0CB3FBFCF30133C3F30B03E8
:10333000B3FA83F35B09E4E7431E05EB850505EB70
:103340008505B3FBF5F30133C3F30B0343F44043AB
:1033500088E7042386E7012384E7012070470120E2
:10336000ACE700BFA08601007F841E0083DE1B4304
:10337000FF083D00D34D62102DE9F04385B00446AF
:103380000F46914698460C9EFEF7E2FC054694F8DF
:103390003D00C0B2202804D00227384605B0BDE861
:1033A000F0830095192301224F492046FFF754FC72
:1033B000002840F0928094F83C30012B00F08F8080
:1033C000012384F83C3023681A6812F0010F03D1FE
:1033D0001A6842F001021A602268136823F400633D
:1033E0001360212384F83D30102384F83E300023FD
:1033F0002364C4F82490A4F82A80638D23853B4B72
:10340000E3622B46324639462046FFF7E5FC074685
:10341000002866D10023039323685A6903929B69AD
:103420000393039B11E0236C042B01D00127B4E725
:103430002268136843F400731360F7E72A463146A5
:103440002046FFF74FFE00282ED1238D002B36D0CB
:103450002A4631462046FFF7A9FD0028E3D1626ADB
:10346000236812781A61606A431C6362618D89B2B5
:10347000013989B26185238D013B9BB22385226886
:10348000516911F0040FD9D0002BD7D043781361C4
:10349000636A01336362638D9BB2013B9BB26385B8
:1034A000238D013B2385C9E7236C042B01D0012721
:1034B00073E72268136843F400731360F7E7226828
:1034C000136843F400731360202384F83D30002315
:1034D00084F83E3084F83C305FE702275DE702273E
:1034E0005BE7012759E700BF020010000000FFFF63
:1034F0002DE9F04389B004460F4691469846109E48
:1035000000230793FEF724FC054694F83D00C0B263
:10351000202804D00227384609B0BDE8F083009582
:103520001923012280492046FFF796FB002840F02E
:103530007A8194F83C30012B00F07781012384F8E4
:103540003C3023681A6812F0010F03D11A6842F068
:1035500001021A602268136823F4006313602223B7
:1035600084F83D30102384F83E3000232364C4F8EF
:103570002490A4F82A80638D23856C4BE3622B464C
:10358000324639462046FFF781FC0746002840F0C6
:103590004E81238D5BB9039323685A6903929A691C
:1035A0000392039A1A6842F400721A60F3E0012B46
:1035B0000FD0022B21D02268136843F4806313607C
:1035C0000023069323685A6906929B690693069B1B
:1035D000E1E02268136823F48063136072B600236D
:1035E000049323685A6904929A690492049A1A68A7
:1035F00042F400721A6062B6CDE02268136843F4A8
:103600000063136072B60023059323685A6905921C
:103610009A690592059A1A6822F480621A6062B665
:10362000B9E02A4631462046FFF78BFD002840F0DE
:10363000008123681A69636A1A70636A01336362DE
:10364000238D013B2385638D9BB2013B9BB2638538
:10365000A1E000953346002235492046FFF7FCFAE9
:10366000002840F0EA802268136823F48063136026
:1036700072B623681A69636A1A70636A01336362F7
:10368000238D013B2385638D9BB2013B9BB26385F8
:10369000284B1B68DB08284AA2FB03231B0A03EB09
:1036A0008303C3EBC3030793079901390791079974
:1036B000002928D023685A6912F0040FF4D01A6840
:1036C00042F400721A6023681A69636A1A70636AA6
:1036D00001336362238D013B2385638D9BB2013BE4
:1036E0009BB2638562B623681A69636A1A70636A5B
:1036F00001336362238D013B2385638D9BB2013BC4
:103700009BB2638547E000232363202284F83D2099
:1037100084F83E30226C42F02002226462B684F8C3
:103720003C300127F7E600BF020010000000FFFF59
:10373000040001000000002089B5F8142A46314633
:103740002046FFF7FEFC002879D123681A69636AD6
:103750001A70636A01336362228D013A92B2228544
:10376000638D9BB2013B9BB263852368596911F05D
:10377000040F10D0032A48D023681A69636A1A70AC
:10378000636A01336362238D013B2385638D9BB2A2
:10379000013B9BB26385218D00293BD00329CDD805
:1037A00001293FF43EAF02297FF453AF0095334621
:1037B000002224492046FFF74FFA00283BD172B679
:1037C0002268136843F40073136023681A69636AFC
:1037D0001A70636A01336362238D013B2385638D15
:1037E0009BB2013B9BB2638562B623681A69636A28
:1037F0001A70636A01336362238D013B2385638DF5
:103800009BB2013B9BB26385C5E71A6822F48062D4
:103810001A60B1E7202384F83D30002384F83E305D
:1038200084F83C3077E6022775E6022773E6012725
:1038300071E601276FE601276DE601276BE6012798
:1038400069E600BF040001002DE9F04383B004469F
:103850000F46904699460C9EFEF77AFA054694F874
:103860003D00C0B2202803D0022003B0BDE8F083A1
:103870000095192301224B492046FFF7EDF9002856
:1038800040F0898094F83C30012B00F086800123C1
:1038900084F83C3023681A6812F0010F03D11A68CB
:1038A00042F001021A602268136823F40063136077
:1038B000212384F83D30402384F83E3000232364E4
:1038C0000A9B6362BDF82C306385638D2385364B7C
:1038D000E362019500964B46424639462046FFF783
:1038E00095FB00285BD1238D002B35D02A4631462D
:1038F0002046FFF75BFB20BB626A236812781A61DF
:10390000626A531C6362218D013989B22185638DFE
:103910009BB2013B9BB263852368586910F0040F8A
:10392000E1D00029DFD052781A61636A0133636203
:10393000238D013B2385638D9BB2013B9BB2638545
:10394000D1E7236C042B01D001208EE72268136895
:1039500043F400731360F7E72A4631462046FFF729
:10396000C1FB50B1236C042B01D001207DE72268FC
:10397000136843F400731360F7E72268136843F495
:1039800000731360202384F83D30002384F83E3018
:1039900084F83C3069E7022067E7022065E70120F0
:1039A00063E700BF020010000000FFFF7047704790
:1039B000704708B590F83D30DAB2438D9BB283B1C1
:1039C000416A036809781961436A01334362438D90
:1039D0009BB2013B9BB24385438D9BB20BB9292A15
:1039E00000D008BD0268536823F48063536021232C
:1039F0000363282380F83D30FFF7DAFFF1E77047D3
:103A000008B590F83D30DAB2438D9BB283B10368BC
:103A10001969436A1970436A01334362438D9BB24B
:103A2000013B9BB24385438D9BB20BB92A2A00D040
:103A300008BD0268536823F4806353602223036344
:103A4000282380F83D30FFF7DAFFF1E7704700B533
:103A500083B090F83D3003F02803282B0CD00023CE
:103A6000019302685169019192690192019A80F86B
:103A70003C3003B05DF804FB0268536823F48063B4
:103A8000536011F0040F0BD0002311F0800F09D107
:103A90008289002180F83C101946FFF7D7FFE8E73C
:103AA0000123F2E7028BF4E77047704708B5C26A5A
:103AB00090F83D30DBB2212B00D008BD438D9BB286
:103AC00063B1426A036812781A61436A0133436240
:103AD000438D9BB2013B9BB24385EEE7082A04D09D
:103AE000202A02D012F5803F19D10268536823F4CE
:103AF000E06353600268136843F4007313600023AB
:103B00000363202380F83D3090F83E30DBB2402B39
:103B100015D0002380F83E30FFF748FFCDE702685C
:103B2000536823F4E063536011230363002380F898
:103B30003E30202380F83D30FFF738FFBDE70023FB
:103B400080F83E30FFF7B1FFB7E708B590F83D3099
:103B5000026D9AB9C36C012B08D0836CC3F30723A1
:103B600002681361036D0133036508BD836C02684D
:103B7000DBB21361036D02330365F6E7DBB2026D5E
:103B8000012A23D0026D022A3ED1222B26D0428D5B
:103B900092B20AB1212B2AD0428D92B2002AE4D1EE
:103BA000212BE2D10268536823F4E063536002687A
:103BB000136843F40073136000230363202280F82A
:103BC0003D2080F83E30FFF770FFCEE7836C02683F
:103BD000DBB21361036D01330365C6E70268136846
:103BE00043F480731360036D01330365BDE7426ADC
:103BF000036812781A61436A01334362438D9BB2B2
:103C0000013B9BB24385B0E7FEF724FEADE710B55C
:103C100090F83D30DBB290F83E20D2B2C46A018DFC
:103C200000293BD1212B02D0402A42D010BD082CC4
:103C300004D0202C02D014F5803F19D102685368BB
:103C400023F4E06353600268136843F40073136065
:103C500000230363202380F83D3090F83E30DBB230
:103C6000402B15D0002380F83E30FFF79FFEDDE7A4
:103C70000268536823F4E063536011230363002355
:103C800080F83E30202380F83D30FFF78FFECDE7EF
:103C9000002380F83E30FFF708FFC7E7212BC3D190
:103CA000438D9BB243B90268536823F48063536029
:103CB000BCE7222BBAD1F3E790F83E30DBB2402BC1
:103CC0000CD0426A036812781A61436A0133436276
:103CD000438D9BB2013B9BB24385A7E7FFF735FFBE
:103CE000A4E7704708B5C26A438D9BB2042B14D079
:103CF000438D9BB2032B22D0438D9BB2022B39D034
:103D000003681A69436A1A70436A01334362438D38
:103D10009BB2013B9BB2438510E00268536823F4D9
:103D20008063536003681A69436A1A70436A0133F7
:103D30004362438D9BB2013B9BB2438508BD016842
:103D40004B6823F480634B60042A06D0022A04D017
:103D50000268136823F48063136003681A69436A76
:103D60001A70436A01334362438D9BB2013B9BB29D
:103D70004385E3E7531E0F2B42D8DFE803F0083BEF
:103D8000413B41414141414141414141410801687B
:103D90000B6823F480630B6003681969436A197028
:103DA000416A4B1C4362438D9BB2013B9BB24385EE
:103DB00003681B694B70436A01334362438D9BB2B6
:103DC000013B9BB2438501684B6823F440734B6011
:103DD000202380F83D3090F83E30DBB2402B15D0E8
:103DE000002380F83E30082A17D0202A15D012234D
:103DF000036314E001680B6843F480630B60CBE756
:103E000001680B6843F400730B60C5E7002380F87A
:103E10003E300363FFF765FF90E700230363FFF77E
:103E2000C6FD8BE7704738B590F83D30DBB2222BEA
:103E300000D038BD0446C56A438D9BB2032B15D90B
:103E400003681A69436A1A70436A01334362438DF7
:103E50009BB2013B9BB24385438D9BB2032BE8D1C0
:103E60000268536823F480635360E2E7C26A022A5F
:103E700001D0012B05D92268536823F48063536075
:103E8000D7E7FEF79DFE002835D12268136823F49A
:103E9000806313602268536823F4E06353602368EF
:103EA0001A69636A1A70636A01336362638D9BB235
:103EB000013B9BB26385202384F83D3094F83E306B
:103EC000DBB2402B09D0002384F83E30082D0CD003
:103ED000202D0AD01223236309E0002384F83E300A
:103EE00023632046FFF7FDFEA3E70023236320465C
:103EF000FFF75DFD9DE72268536823F4E06353609C
:103F000023681A69636A1A70636A01336362638D96
:103F10009BB2013B9BB26385202384F83D30002394
:103F200084F83E302046FFF77DFF82E770470000AF
:103F300000B583B000230193406A90F83D20D2B2CF
:103F4000324B1B68DB083249A1FB03131B0A03EB4E
:103F50008303C3EBC3030193019B43B1019B013B6B
:103F6000019303681B6813F4007FF5D103E0036C31
:103F700043F020030364436B0BB100219962836B10
:103F80000BB10021996201680B6823F480630B6018
:103F900000234385436B0BB100215963836B0BB145
:103FA0000021596301680B6823F001030B6090F84E
:103FB0003D30DBB2602B0ED002F02802282A14D04C
:103FC000202380F83D30002380F83E30FFF72AFFA1
:103FD00003B05DF804FB202380F83D30002380F817
:103FE0003E300364FFF7A2FFF2E70268136843F074
:103FF000010313600268136843F4806313600023B5
:104000000363282380F83D30E0E700BF0000002074
:1040100089B5F81410B5044690F83D30DBB290F83D
:104020003E20D2B2102A36D0402A34D003F02802E3
:10403000282A38D02268526812F4006F07D1602B0A
:1040400005D0202384F83D30002384F83E3000233F
:10405000236323685A6812F4006F48D05A6822F428
:1040600000625A60626B92F82130DBB2012B20D0E3
:10407000444B5363606BFEF76BFA002849D022680B
:10408000136823F001031360202384F83D30606B34
:10409000436B98473DE0222BC8D121680A6822F47F
:1040A00000620A60C2E700232363282384F83D30BE
:1040B000CFE7A36B334A5A63A06BFEF749FA40B3CC
:1040C00023685A6912F0400F05D01A69636A1A70A2
:1040D000636A013363622268136823F0010313608B
:1040E000202384F83D30A06B436B984711E094F88F
:1040F0003D20D2B2602A1FD05A6912F0400F05D07D
:104100001A69636A1A70636A013363622046FFF7B3
:1041100089FE236C13F00F0F04D02268536823F438
:10412000E063536094F83D30DBB2226C12F0040F70
:1041300001D0282B18D010BD202284F83D20002269
:1041400022645A6912F0400F05D01A69636A1A7026
:10415000636A013363622268136823F0010313600A
:104160002046FFF7E3FED4E7074BE3620023236317
:10417000202284F83D2084F83E302046FFF794FC4E
:10418000D9E700BF313F00080000FFFF30B583B022
:10419000044690F83D50EDB20268536823F4E063A2
:1041A00053600023019303685A6901921A6842F030
:1041B00001021A60019B0268136823F48063136094
:1041C00003685A6812F4006F38D0222D21D02A2DAE
:1041D0001FD0426B1268526892B24285428D92B2F1
:1041E0001AB1026C42F0040202645A6822F40062BE
:1041F0005A60606BFEF7F8F901281FD0636B444AE0
:104200005A63606BFEF7A4F9C0B1606B436B9847CB
:1042100014E0A26B1268526892B26285628D92B20B
:104220001AB1226C42F0040222645A6822F400623D
:104230005A60A06BFEF7D8F9012842D1638D9BB27A
:1042400033B323685A6912F0040F0AD01A69636AFB
:104250001A70636A01336362638D9BB2013B9BB248
:10426000638523685A6912F0400F0AD01A69636A9D
:104270001A70636A01336362638D9BB2013B9BB228
:104280006385638D9BB21BB1236C43F004032364ED
:10429000236C13BB2A2D25D094F83D30DBB2282B9C
:1042A00029D0236B222B01D0222D19D10023236387
:1042B000202284F83D2084F83E302046FFF79FFB03
:1042C0000EE0A36B124A5A63A06BFEF741F9002877
:1042D000B4D0A06B436B9847B0E72046FFF79AFE37
:1042E00003B030BD00232363282384F83D302046EB
:1042F000FFF785FBD0E7074BE3620023236320220F
:1043000084F83D2084F83E302046FFF7CDFBE7E7F8
:10431000313F00080000FFFFF8B504460268556809
:10432000C66A90F83E30DBB290F83D10C8B2102B50
:1043300013D0402B11D0236C002B7AD0536900216D
:1043400013F0020F78D015F4007F75D0236C03B101
:1043500091692046FFF77BFBF8BDD2F818C0516980
:1043600011F0010705D1B6F52A0FF5D0B6F12A4FA5
:10437000F2D017B115F4007F29D111F0080F02D047
:1043800015F4007F2AD111F0020F02D015F4007F3E
:1043900028D11CF0040F31D0526812F4006FDBD129
:1043A00011F0800F05D015F4806F02D011F0040FCA
:1043B0001CD011F0040FCFD015F4007FCCD02128F1
:1043C00018D0402BC8D12046FFF7BFFBC4E72046DA
:1043D000FEF733FC2046FEF745FABDE72046FEF720
:1043E00095FAB9E72046FEF7A7FAB5E72046FFF7AA
:1043F0000EFCB1E72046FFF759FBADE7536813F415
:10440000006FA9D111F0400F05D015F4806F02D0D4
:1044100011F0040F09D011F0040F9DD015F4007FA6
:104420009AD02046FFF75EFC96E72046FFF7FBFC9C
:1044300092E79169536983E713F0100F02D015F4E6
:10444000007F18D121281AD0292818D013F0400F46
:1044500005D015F4806F02D013F0040F28D013F0AC
:10446000040F3FF479AF15F4007F3FF475AF204699
:10447000FEF796FB70E72046FFF788FE6CE713F027
:10448000800F05D015F4806F02D013F0040F0BD00D
:1044900013F0040F3FF460AF15F4007F3FF45CAFFE
:1044A0002046FEF76DFB57E72046FFF782FA53E7F9
:1044B0002046FFF7A5FA4FE782B0084B1B68084A71
:1044C000A2FB03235B0A00FB03F3019300BF019BE4
:1044D0005A1E0192002BF9D102B070470000002053
:1044E000D34D6210002800F0F18170B582B004460F
:1044F000036813F0010F2CD0994B5B6803F00C0399
:10450000042B1DD0964B5B6803F00C03082B12D0D4
:104510006368B3F5803F41D0002B55D103F1804350
:1045200003F504331A6822F480321A601A6822F400
:1045300080221A6037E08A4B5B6813F4803FE7D033
:10454000874B1B6813F4003F03D06368002B00F017
:10455000BF81236813F0020F75D0814B5B6813F0A5
:104560000C0F5FD07E4B5B6803F00C03082B54D01C
:104570002369002B00F08A807A4B01221A60FDF734
:10458000E7FB0546764B1B6813F0020F75D1FDF76C
:10459000DFFB401B0228F5D903209EE1704A136817
:1045A00043F480331360636843B3FDF7D1FB0546E2
:1045B0006B4B1B6813F4003FCBD1FDF7C9FB401BCD
:1045C0006428F5D9032088E1B3F5A02F09D0644B06
:1045D0001A6822F480321A601A6822F480221A6063
:1045E000E1E703F18043A3F53C331A6842F48022EB
:1045F0001A601A6842F480321A60D4E7FDF7A8FB0B
:104600000546574B1B6813F4003FA2D0FDF7A0FBF3
:10461000401B6428F5D903205FE1514B5B6813F41C
:10462000803FA5D14E4B1B6813F0020F03D02369C6
:10463000012B40F04F814A4A136823F0F803616967
:1046400043EAC1031360236813F0080F33D0A36952
:10465000002B5CD0434B0122C3F88024FDF778FB8C
:1046600005463F4B5B6A13F0020F21D1FDF770FB4B
:10467000401B0228F5D903202FE1394A136823F0A3
:10468000F803616943EAC1031360DCE7354B00229C
:104690001A60FDF75DFB0546314B1B6813F0020FF6
:1046A000D1D0FDF755FB401B0228F5D9032014E1BA
:1046B0000120FFF701FF236813F0040F00F096803C
:1046C000274BDB6913F0805F34D1254BDA6942F068
:1046D0008052DA61DB6903F080530193019B01256D
:1046E000214B1B6813F4807F26D0E368012B3DD05B
:1046F000002B53D103F1804303F504331A6A22F0EF
:1047000001021A621A6A22F004021A6233E0154B9F
:104710000022C3F88024FDF71BFB0546104B5B6AA3
:1047200013F0020FC7D0FDF713FB401B0228F5D989
:104730000320D2E00025D3E70B4A136843F48073CB
:104740001360FDF705FB0646074B1B6813F4807FDB
:10475000CBD1FDF7FDFA801B6428F5D90320BCE01E
:104760000010024000004242007000405F4A136A9D
:1047700043F001031362E36833B3FDF7E9FA064639
:104780005A4B1B6A13F0020F2FD1FDF7E1FA801B81
:1047900041F288339842F3D903209EE0052B09D0DB
:1047A000524B1A6A22F001021A621A6A22F00402BB
:1047B0001A62E0E74D4B1A6A42F004021A621A6A62
:1047C00042F001021A62D6E7FDF7C2FA0646474BED
:1047D0001B6A13F0020F08D0FDF7BAFA801B41F2F2
:1047E00088339842F3D9032077E0E5B9E369002BD9
:1047F00072D03E4A526802F00C02082A56D0022BB0
:1048000017D03B4B00221A66FDF7A2FA0446374B3D
:104810001B6813F0007F47D0FDF79AFA001B0228AF
:10482000F5D9032059E0314AD36923F08053D3618D
:10483000DCE72F4B00221A66FDF78AFA05462B4B60
:104840001B6813F0007F06D0FDF782FA401B022898
:10485000F5D9032041E0236AB3F5803F1AD02349FC
:104860004B6823F47413226A606A024313434B605B
:104870001F4B01221A66FDF76BFA04461B4B1B689F
:1048800013F0007F0ED1FDF763FA001B0228F5D963
:10489000032022E0154A536823F40033A1680B4338
:1048A0005360DCE7002018E0002016E0012B16D052
:1048B0000E4B5B6803F48031226A914211D103F4FC
:1048C0007013626A93420ED1002006E00120704707
:1048D000012002E0012000E0002002B070BD0120B4
:1048E000FBE70120F9E70120F7E700BF00100240D5
:1048F000000042420F4B5B6803F00C02082A01D013
:104900000D487047C3F383420C49885C13F4803F21
:104910000BD0084B5B68C3F34043094AD35C064A9B
:1049200002FB00F0B0FBF3F07047064B03FB00F016
:10493000704700BF0010024000127A0044AC00082B
:1049400040AC000800093D00002800F0A08070B5D0
:104950000D460446524B1B6803F007038B420BD2F3
:104960004F4A136823F007030B431360136803F0E7
:1049700007038B4240F08D80236813F0020F17D09D
:1049800013F0040F04D0474A536843F4E0635360C4
:10499000236813F0080F04D0424A536843F460536D
:1049A0005360404A536823F0F003A1680B435360FF
:1049B000236813F0010F31D06368012B20D0022B44
:1049C00025D0384A126812F0020F64D035494A687F
:1049D00022F0030213434B60FDF7BAF90646314B50
:1049E0005B6803F00C036268B3EB820F16D0FDF72F
:1049F000AFF9801B41F288339842F0D9032045E09B
:104A0000284A126812F4003FE0D101203EE0254A16
:104A1000126812F0007FD9D1012037E0204B1B68CB
:104A200003F00703AB420AD91D4A136823F00703BA
:104A30002B431360136803F00703AB422DD12368A7
:104A400013F0040F06D0174A536823F4E063E168BB
:104A50000B435360236813F0080F07D0114A5368C3
:104A600023F46053216943EAC1035360FFF742FF17
:104A70000C4B5B68C3F303130B4AD35CD8400B4B5E
:104A800018600B4B1868FDF71FF9002070BD01205E
:104A900070470120FAE70120F8E70120F6E700BFA0
:104AA000002002400010024030AC0008000000204E
:104AB00008000020014B1868704700BF000000206C
:104AC00008B5FFF7F7FF044B5B68C3F30223034A03
:104AD000D35CD84008BD00BF0010024028AC0008DD
:104AE00008B5FFF7E7FF044B5B68C3F3C223034A33
:104AF000D35CD84008BD00BF0010024028AC0008BD
:104B000070B582B00446036813F0010F36D03F4BF6
:104B1000DB6913F0805F49D13C4BDA6942F0805287
:104B2000DA61DB6903F080530193019B0125384B67
:104B30001B6813F4807F3BD0344B1B6A13F4407323
:104B400013D0626802F440729A420ED02F4A136A60
:104B500023F440702F490126C1F840640026C1F8B3
:104B60004064106213F0010F36D1284A136A23F40F
:104B7000407361680B431362002D3ED1236813F02C
:104B8000020F06D0214A536823F44043A1680B4327
:104B90005360236813F0100F34D01C4A536823F479
:104BA0008003E1680B43536000202CE00025BEE742
:104BB000174A136843F480731360FDF7C9F806467B
:104BC000134B1B6813F4807FB6D1FDF7C1F8801B2F
:104BD0006428F5D9032016E0FDF7BAF806460B4B1A
:104BE0001B6A13F0020FC0D1FDF7B2F8801B41F22F
:104BF00088339842F3D9032005E0D36923F080532A
:104C0000D361BBE7002002B070BD00BF00100240BE
:104C1000007000400000424208B502284ED0102823
:104C200003D0012828D0002008BD2B4B5A681868F3
:104C300010F08070F8D0C2F383432849C85C12F4A6
:104C4000803F15D0244B5B68C3F34043244AD25CB9
:104C5000244BB3FBF2F303FB00F01F4B5B6813F430
:104C6000800FE1D14000204BA3FB00304008DBE780
:104C70001E4B03FB00F0F0E7174B1B6A40F20232B9
:104C80001A40B2F5817F24D003F44073B3F5007F5E
:104C900004D0B3F5407F09D00020C5E70E4A526A20
:104CA00012F0020FF5D049F64040BDE70A4B1868F4
:104CB00010F40030B8D04FF22440B5E7FFF710FFF2
:104CC000054B5B68C3F3813301335B00B0FBF3F04A
:104CD000AAE74FF40040A7E70010024058AC0008D4
:104CE00054AC000800127A00ABAAAAAA00093D0041
:104CF00030B4026A036A23F00103036245688369E2
:104D000023F073030C681C4322F002028B681343E8
:104D10000B4A904206D0456084614A684263036250
:104D200030BC704723F00803CA681A4322F004031A
:104D300025F440754A692A438D691543EBE700BFA6
:104D4000002C014030B4036A026A22F480720262CD
:104D50004468C26922F073020D68154323F400739E
:104D60008A6843EA02230D4A904206D04460C56136
:104D70004A68C263036230BC704723F40063CA68A8
:104D800043EA022323F4806324F440544A6944EA4A
:104D900002148A6944EA0214E8E700BF002C0140CB
:104DA00030B4036A026A22F4805202624468C26923
:104DB00022F4E6420D6842EA052223F400538D688E
:104DC00043EA0533074DA84206D04460C2614A68F1
:104DD0000264036230BC704724F480444D6944EAA5
:104DE0008514F2E7002C014010B4036A046A24F031
:104DF00001040462846924F0F00C4CEA021223F0EE
:104E00000A030B438261036210BC704710B4036A4B
:104E1000046A24F010040462846924F4704C4CEA9F
:104E2000023223F0A00343EA01138261036210BC43
:104E30007047836823F070030B4343F007038360DC
:104E40007047000090F83D30DBB2012B22D10223E5
:104E500080F83D300368114A934210D0B3F1804F7F
:104E60000DD0A2F59432934209D002F580629342AC
:104E700005D01A6842F001021A60002070479A6853
:104E800002F00702062A07D01A6842F001021A60EF
:104E9000002070470120704700207047002C01401F
:104EA0000368196A41F21112114208D1196A40F2DD
:104EB0004442114203D11A6822F001021A60012310
:104EC00080F83D300020704790F83D30DBB2012B78
:104ED00027D1022380F83D300268D36843F00103F4
:104EE000D3600368114A934210D0B3F1804F0DD0C4
:104EF000A2F59432934209D002F58062934205D024
:104F00001A6842F001021A60002070479A6802F0A5
:104F10000702062A07D01A6842F001021A60002030
:104F20007047012070470020704700BF002C0140EF
:104F300070477047704770477047704770B50446B8
:104F40000368DE681D6915F0020F10D016F0020F1D
:104F50000DD06FF002021A610123037703689B6989
:104F600013F0030F5ED0FFF7E6FF0023237715F061
:104F7000040F12D016F0040F0FD023686FF0040254
:104F80001A610223237723689B6913F4407F4FD073
:104F90002046FFF7D0FF0023237715F0080F12D02B
:104FA00016F0080F0FD023686FF008021A6104236F
:104FB00023772368DB6913F0030F40D02046FFF707
:104FC000BAFF0023237715F0100F12D016F0100F40
:104FD0000FD023686FF010021A610823237723682B
:104FE000DB6913F4407F31D02046FFF7A4FF002394
:104FF000237715F0010F02D016F0010F2DD115F017
:10500000800F02D016F0800F2FD115F0400F02D084
:1050100016F0400F31D115F0200F02D016F0200FFE
:1050200033D170BDFFF786FF2046FFF785FF9CE771
:105030002046FFF77FFF2046FFF77EFFABE72046C5
:10504000FFF778FF2046FFF777FFBAE72046FFF724
:1050500071FF2046FFF770FFC9E723686FF0010278
:105060001A612046FFF765FFC9E723686FF08002E9
:105070001A61204600F072FBC7E723686FF0400218
:105080001A612046FFF759FFC5E723686FF0200239
:105090001A61204600F061FBC3E7000003681F4A65
:1050A00090420AD0B0F1804F07D0A2F594329042DE
:1050B00003D002F58062904203D123F070034A6866
:1050C0001343164A90420AD0B0F1804F07D0A2F5A0
:1050D0009432904203D002F58062904203D123F4CF
:1050E0004073CA68134323F080034A691343036083
:1050F0008B68C3620B688362084B98420AD0012315
:105100004361036913F0010F03D0036923F0010326
:10511000036170470B690363F1E700BF002C014096
:1051200040B310B5044690F83D30F3B1022384F843
:105130003D30214651F8040BFFF7B0FF012384F8FE
:10514000463084F83E3084F83F3084F8403084F8AC
:10515000413084F8423084F8433084F8443084F895
:10516000453084F83D30002010BD80F83C30FCF71D
:10517000DDFBDBE70120704740B310B5044690F833
:105180003D30F3B1022384F83D30214651F8040B41
:10519000FFF784FF012384F8463084F83E3084F81A
:1051A0003F3084F8403084F8413084F8423084F84D
:1051B000433084F8443084F8453084F83D30002092
:1051C00010BD80F83C30FFF7B3FEDBE701207047ED
:1051D000002856D070B50D46044690F83D30002B9F
:1051E0004AD0022384F83D302268936823F4804338
:1051F00023F007039360214651F8040BFFF74EFF9D
:1052000021688B688A690E6A2868184322F4407204
:1052100022F00302AB68D5F818C043EA0C2313430D
:1052200023F47C4323F0FC03EA68D5F81CC042EA6F
:105230000C221A432B6A1B03D5F810C043EA0C1347
:10524000134326F022066A686D6942EA051232436A
:10525000886021688B6123681A62012384F84630D4
:1052600084F83E3084F83F3084F8423084F843308C
:1052700084F83D30002070BD80F83C30FCF7A6FB80
:10528000AFE701207047000030B4036A026A22F0E1
:10529000100202624468826922F4E6420D6842EA22
:1052A000052223F020038D6843EA05130C4DA84224
:1052B00006D0446082614A688263036230BC7047F2
:1052C00023F08003CD6843EA051323F0400324F460
:1052D00040644D6944EA85048D6944EA8504E8E741
:1052E000002C014038B590F83C30012B66D00446C4
:1052F0000D46012380F83C300C2A5AD8DFE802F032
:10530000075959591B59595930595959440000687E
:10531000FFF7EEFC2268936943F00803936122686B
:10532000936923F0040393612268936929690B430D
:10533000936100203EE00068FFF7A6FF22689369B2
:1053400043F4006393612268936923F4806393615B
:1053500022689369296943EA01239361002029E0C7
:105360000068FFF7EFFC2268D36943F00803D361BC
:105370002268D36923F00403D3612268D3692969C1
:105380000B43D361002015E00068FFF709FD226898
:10539000D36943F40063D3612268D36923F4806343
:1053A000D3612268D369296943EA0123D3610020CC
:1053B00000E00120002384F83C3038BD0220FCE7E7
:1053C00010B4846824F47F4C42EA03220A4342EA80
:1053D0000C02826010BC704790F83C30012B78D0F2
:1053E00010B50446012380F83C30022380F83D309C
:1053F0000268936823F47F4323F0770393600B687C
:10540000602B4CD029D8402B54D00CD9502B22D112
:10541000CA6849680068FFF7E7FC50212068FFF779
:1054200008FD002005E0202B0DD009D9302B0AD033
:105430000120012384F83D30002384F83C3010BD66
:105440000BB1102B05D119462068FFF7F2FC0020A4
:10545000EFE70120EDE70120EBE7B3F5805F34D003
:10546000B3F5005F0CD1CB684A6889680068FFF724
:10547000A7FF2268936843F4804393600020D8E735
:10548000702B24D1CB684A6889680068FFF798FFC1
:105490002268936843F0770393600020C9E7CA68E5
:1054A00049680068FFF7B2FC60212068FFF7C1FC83
:1054B0000020BEE7CA6849680068FFF795FC4021F4
:1054C0002068FFF7B6FC0020B3E70020B1E7012019
:1054D000AFE70220704701F01F014FF0010C0CFAFA
:1054E00001FC036A23EA0C030362036A8A40134344
:1054F0000362704710B50446084651BB94F83E302D
:10550000DBB2013B18BF0123002B5BD1002839D14E
:10551000022384F83E30012201462068FFF7DBFFBA
:1055200023682A4A93423DD02368284A93423ED0BA
:10553000B3F1804F3BD0A2F59432934237D002F5BD
:105540008062934233D01A6842F001021A60002050
:1055500039E0042908D008290DD094F84130DBB295
:10556000013B18BF0123CFE794F83F30DBB2013B8A
:1055700018BF0123C8E794F84030DBB2013B18BFE5
:105580000123C1E7042805D0082807D0022384F8A6
:105590004130C0E7022384F83F30BCE7022384F89F
:1055A0004030B8E75A6C42F400425A64BCE79A684B
:1055B00002F00702062A07D01A6842F001021A60B8
:1055C000002000E0012010BD0020FCE7002C01407D
:1055D00038B5044690F83E00C0B294F83F3094F8D5
:1055E0004220D2B294F843C00D46B1B9012849D146
:1055F000012A48D1022384F83E3084F842307DB33A
:10560000042D39D0012200212068FFF764FF012218
:1056100004212068FFF75FFF27E0DBB25FFA8CFC14
:10562000042912D0012833D1012B2CD1012A31D1E8
:10563000BCF1010F30D1022384F83E3084F83F30B2
:1056400084F8423084F84330D9E7012B1CD1BCF1F7
:10565000010F1BD1022384F83F3084F84330CEE79A
:10566000012200212068FFF736FF2268136843F00B
:1056700001031360002006E0012204212068FFF7E7
:105680002AFFF2E7012038BD0120FCE71846FAE7BF
:105690000120F8E71846F6E71046F4E790F83C20BA
:1056A000012A2CD010B40346012280F83C200222AB
:1056B00080F83D2002685068946820F0700C0868FB
:1056C00040EA0C0050601A680E4882420AD0B2F1DB
:1056D000804F07D0A0F59430824203D000F580605F
:1056E000824204D124F08004496821439160012260
:1056F00083F83D20002083F83C0010BC7047022056
:10570000704700BF002C0140024690F83C30012B4E
:1057100021D0012380F83C30CB6823F440738868A3
:10572000034323F480634868034323F40063086859
:10573000034323F480530869034323F40053486967
:10574000034323F48043C9690B4311684B64002071
:1057500082F83C007047022070477047704702682B
:1057600002F10C0353E8003F23F490730C3242E83B
:1057700000310029F3D1026802F1140353E8003F1D
:1057800023F00103143242E800310029F3D1036B06
:10579000012B05D0202380F842300023036370479B
:1057A000026802F10C0353E8003F23F010030C32AF
:1057B00042E800310029F3D1ECE790F84130DBB248
:1057C000212B01D0022070478368B3F5805F17D08A
:1057D000036A5A1C02621A7803685A60C38C9BB22F
:1057E000013B9BB2C3844BB90268D36823F08003AA
:1057F000D3600268D36843F04003D3600020704751
:105800000369002BE4D1036A1B880268C3F3080311
:105810005360036A02330362E0E7000010B50446F8
:105820000268136923F44053C1680B431361836812
:105830000269134342691A430168CB6823F4B053E9
:1058400023F00C031343CB600268536923F44073C5
:1058500081690B4353610268134B9A4220D0FFF7D2
:105860002FF9024602EB820202EB820263689B0080
:10587000B2FBF3F20D48A0FB02314909642303FB9C
:1058800011231B013233A0FB03035B0903F0F00279
:1058900002EB011203F00F03216813448B6010BD6B
:1058A000FFF71EF90246DDE7003801401F85EB5186
:1058B00060B310B5044690F8413013B3242384F844
:1058C00041302268D36823F40053D3602046FFF7A9
:1058D000A5FF2268136923F490431361226853697A
:1058E00023F02A0353612268D36843F40053D36042
:1058F00000206064202384F8413084F842306063E3
:1059000010BD80F84030FCF775F9D7E701207047EB
:10591000704708B50168CA6822F04002CA602022B8
:1059200080F84120FFF7F4FF002008BD704708B55C
:10593000406A0023C385C384FFF7F8FF08BD7047A2
:1059400090F84230DBB2222B69D18368B3F5805FD7
:105950004FD0826AB3F5805F04D0002B56D1036923
:10596000002B53D103685B681370836A0133836231
:10597000C38D9BB2013B9BB2C385002B51D100B5B7
:1059800083B00268D36823F02003D3600268D36831
:1059900023F48073D3600268536923F001035361D9
:1059A000202380F8423000234363036B012B33D163
:1059B00000230363026802F10C0353E8003F23F065
:1059C00010030C3242E800310029F3D103681A6851
:1059D00012F0100F06D0002201921A6801925B6843
:1059E0000193019B818DFFF7AAFF002003B05DF8B2
:1059F00004FB0269002AACD1826A03685B68C3F3C6
:105A000008031380836A02338362B1E703685B682B
:105A100003F07F031370A8E700F042FAE5E70220E5
:105A2000704700207047000010B582B0044602683D
:105A30001368D068516913F00F0F09D113F0200FCC
:105A40000CD010F0200F09D02046FFF779FF16E0A8
:105A500011F0010115D110F4907F12D1216B0129B1
:105A600079D013F0800F03D010F0800F40F0138135
:105A700013F0400F03D010F0400F40F0108102B03F
:105A800010BD13F0010F06D010F4807F03D0626CBC
:105A900042F00102626413F0040F04D019B1626C89
:105AA00042F00202626413F0020F04D019B1626C7A
:105AB00042F00402626413F0080F07D010F0200FC8
:105AC00000D119B1626C42F008026264626C002A73
:105AD000D5D013F0200F02D010F0200F29D1236869
